:020000040800F2
:10000000E006002045010008492C00084B2C0008A0
:100010004F2C0008532C0008572C0008000000004B
:100020000000000000000000000000005B2C000841
:100030005D2C0008000000005F2C0008612C000807
:100040005F0100085F0100085F0100085F01000810
:100050005F0100085F0100085F0100085F01000800
:100060005F0100085F0100085F0100085F010008F0
:100070005F0100085F0100085F0100085F010008E0
:100080005F0100085F0100085F0100085F010008D0
:100090005F0100085F0100085F0100085F010008C0
:1000A0005F0100085F0100085F0100085F010008B0
:1000B0005F0100085F0100085F0100085F010008A0
:1000C0005F0100085F0100085F0100085F01000890
:1000D0005F0100085F0100085F0100085F01000880
:1000E0005F0100085F0100085F0100085F01000870
:1000F0005F0100085F0100085F0100085F01000860
:100100005F0100085F0100085F0100085F0100084F
:100110005F0100085F0100085F0100085F0100083F
:100120005F0100085F0100085F0100085F0100082F
:10013000DFF80CD003F064FF004800479F20000860
:10014000E00600200648804706480047FEE7FEE735
:10015000FEE7FEE7FEE7FEE7FEE7FEE7FEE7FEE777
:1001600047020008310100080CB500200190009002
:100170006C48006840F480306A49086000BF6948F4
:10018000006800F4003000900198401C0190009835
:1001900018B90198B0F5A06FF1D16248006800F479
:1001A000003010B10120009001E000200090009884
:1001B000012843D15C48006840F010005A490860AB
:1001C0000846006820F0030008600846006840F018
:1001D0000200086053484068524948600846406839
:1001E00048600846406840F48060486008464068BF
:1001F00020F47C1048600846406840F4E8104860ED
:100200000846006840F08070086000BF45480068FC
:1002100000F000700028F9D04248406820F0030048
:10022000404948600846406840F00200486000BF0E
:100230003C48406800F00C000828F9D10CBD10B50E
:10024000FFF792FF10BD10B53648006840F001007E
:1002500034490860084640683449084031494860DC
:1002600008460068324908402E4908600846006880
:1002700020F4802008600846406820F4FE004860B2
:100280004FF41F008860FFF7DAFF4FF00060294944
:10029000086010BD10B5002100200022214B5B68D2
:1002A00003F00C0121B1042906D0082928D107E068
:1002B000214B224C236027E01F4B204C236023E07E
:1002C000184B5B6803F47010164B5B6803F48032C4
:1002D000022303EB904022B9194B4343174C236090
:1002E0000DE0104B5B6803F4003323B1144B434320
:1002F000124C236003E0104B4343104C236003E097
:100300000D4B0E4C236000BF00BF064B5B68C3F370
:1003100003130C4CE15C094B1B68CB40074C23607A
:1003200010BD000000100240002002400000FFF855
:10033000FFFFF6FE08ED00E000127A00000000204A
:1003400000093D000400002031490143314A116099
:10035000704770B5002100230F22C47804B32D4CE0
:10036000246804F4E064C4F5E064210AC1F10403E4
:10037000CA40447804FA03F1847814402143090107
:10038000254C0678A155047804F01F050124AC40E3
:1003900005786D11AD0005F1E025C5F8004109E0D3
:1003A000047804F01F050124AC401C4D067876113A
:1003B00045F8264070BD1A4A0A400243154B1B1FE0
:1003C0001A60704739B1134A121D12680243114B6B
:1003D0001B1D1A6006E00F4A121D126882430D4B66
:1003E0001B1D1A607047042808D14FF0E0210969ED
:1003F00041F004014FF0E022116107E04FF0E021ED
:10040000096921F004014FF0E022116170470000FA
:100410000000FA050CED00E000E400E080E100E0FF
:1004200080FFFF1F10B50446FA48844208D101211D
:10043000401500F07FFE0021601500F07BFE17E004
:10044000F548844208D10121001500F073FE002117
:10045000201500F06FFE0BE0F048844208D1012126
:10046000C80300F067FE00214FF4004000F062FE78
:1004700010BD30B50246002000235068E84C2040F3
:100480000D790C6844EA0524204350609068E54CDF
:100490002040D1E902542C434D7944EA45042043DD
:1004A0009060D06A20F470000C7C641EE4B2234398
:1004B00040EA0350D06230BD0021016001714171FA
:1004C0008160C16001210174704721B1826842F0EE
:1004D0000102826003E0826822F0010282607047BC
:1004E00021B1826842F48072826003E0826822F463
:1004F00080728260704710B50023CBB21AB1446895
:100500001C43446002E044689C43446010BD816821
:1005100041F0080181607047014600208A6802F0BE
:1005200008020AB1012000E000207047816841F014
:10053000040181607047014600208A6802F00402CD
:100540000AB1012000E00020704721B1826842F426
:10055000A002826003E0826822F4A00282607047F9
:10056000014600208A6802F480020AB1012000E0FE
:100570000020704710B50A4600210023416821F48D
:100580006041531E41EA4331416010BD21B14268D0
:1005900042F40062426003E0426822F4006242607A
:1005A0007047F0B504460D4600200021092D11DDED
:1005B000E068A5F10A0606EB4607072606FA07F1EA
:1005C0008843A5F10A0606EB460603FA06F108433E
:1005D000E0600CE0206905EB4507072606FA07F105
:1005E000884305EB450603FA06F108432061072A14
:1005F0000FDA606B561E06EB86071F2606FA07F118
:100600008843561E06EB860605FA06F1084360632A
:1006100022E00D2A0FDA206BD61F06EB86071F2675
:1006200006FA07F18843D61F06EB860605FA06F19F
:100630000843206310E0E06AA2F10D0606EB86078E
:100640001F2606FA07F18843A2F10D0606EB86067F
:1006500005FA06F10843E062F0BD21B1826842F478
:100660008012826003E0826822F480128260704708
:100670000146C86C80B2704766484C3000687047CD
:1006800021B1426842F48062426003E0426822F491
:1006900080624260704721B1426842F480524260F9
:1006A00003E0426822F48052426070470A4600210B
:1006B000816821F4E04111438160704721B1826873
:1006C00042F40042826003E0826822F400428260C9
:1006D000704721B1826842F40212826003E08268AE
:1006E00022F4021282607047014600208A6802F4F8
:1006F00000120AB1012000E000207047F0B5044666
:100700001546002000220026092911DDE068A1F12C
:100710000A0707EB470C072707FA0CF29043A1F1F1
:100720000A0707EB470703FA07F21043E0600CE003
:10073000206901EB410C072707FA0CF2904301EB0B
:10074000410703FA07F210432061A06BC0F3015682
:10075000EF1C06F1010CA7EB0C0707EB870C1F271A
:1007600007FA0CF29043EF1C06F1010CA7EB0C0703
:1007700007EB870701FA07F21043A063F0BD10B53D
:100780000A4600210023816B21F44011531E41EAE7
:100790000351816310BD08B5002300930090009BB6
:1007A0000B440093009B1A6008BD08B50246002068
:1007B0000090009201F12800009B184400900098DE
:1007C000006880B208BD0A4600214168164B1940F6
:1007D0001143416070474162826270470A460021BE
:1007E000416821F01F0111434160704740B1094940
:1007F0000831096841F40001064A0832116007E037
:1008000004490831096821F40001024A08321160E4
:10081000704700000024014000280140003C0140D6
:10082000FFFEF0FFFDF7F1FFFFFD3FFF0246002056
:1008300013680B400BB1012000E000207047CA4351
:100840000260704770B502460020002300240B129E
:100850005568CEB205EA060415681D4015B10CB105
:10086000012000E0002070BD00220A12D343036083
:100870007047000001684FF6FE72114001600021D0
:10088000016041608160C1608D49884208D18C4916
:100890000839496841F00F01894A083A51608AE0F5
:1008A00087491431884208D185490839496841F09F
:1008B000F001834A083A51607DE08149283188423D
:1008C00008D17F490839496841F470617C4A083A87
:1008D000516070E07A493C31884208D17849083942
:1008E000496841F47041764A083A516063E07449BE
:1008F0005031884208D172490839496841F4702161
:100900006F4A083A516056E06D496431884208D117
:100910006B490839496841F47001694A083A5160E5
:1009200049E067497831884208D165490839496802
:1009300041F07061624A083A51603CE06149884286
:1009400006D1011F096841F00F01021F116032E05A
:100950005C491431884208D15A49091F096841F09D
:10096000F001584A121F116025E05649283188428B
:1009700008D15449091F096841F47061514A121F96
:10098000116018E04F493C31884208D14D49091F98
:10099000096841F470414B4A121F11600BE049494C
:1009A0005031884207D14749091F096841F4702135
:1009B000444A121F1160704710B50022026847F6C2
:1009C000F0739A430C6A8B6823430C6923434C6988
:1009D00023438C692343CC6923434C6A23438C6AA9
:1009E00023431A430260CB6843600B6883604B6803
:1009F000C36010BD0021016041608160C160016180
:100A000041618161C161016241628162704721B1CE
:100A1000026842F00102026004E002684FF6FE73D1
:100A20001A40026070471AB103680B43036002E08A
:100A300003688B4303607047416070470146486814
:100A400080B2704701460020002201F080531BB1A4
:100A50001C4B083B1A6802E0194B083B1A6802EA73
:100A600001030BB1012000E00020704700F080512D
:100A700019B11449091F086002E01149083948609A
:100A8000704701460020002201F080531BB10D4B3E
:100A9000083B1A6802E00A4B083B1A6802EA0103A5
:100AA0000BB1012000E00020704700F0805119B127
:100AB0000449091F086002E001490839486070478D
:100AC000080002400804024010B50446CC488442A5
:100AD00008D10121042000F02DFB0021042000F0AA
:100AE00029FB46E0C748844208D10121082000F0D4
:100AF00021FB0021082000F01DFB3AE0C24884429F
:100B000008D10121102000F015FB0021102000F079
:100B100011FB2EE0BD48844208D10121202000F0C5
:100B200009FB0021202000F005FB22E0B8488442A8
:100B300008D10121402000F0FDFA0021402000F002
:100B4000F9FA16E0B348844208D10121802000F070
:100B5000F1FA0021802000F0EDFA0AE0AE4884426C
:100B600007D10121801500F0E5FA0021A01500F061
:100B7000E1FA10BD10B50121084600F0DBFA0021B2
:100B8000012000F0D7FA10BD2DE9F0410246002502
:100B90000026002000230024002791F803C00CF059
:100BA0000F0591F803C00CF0100CBCF1000F03D03E
:100BB00091F802C04CEA050591F800C0BCF1000FA5
:100BC00031D0146800202BE04FF0010C0CFA00F338
:100BD000B1F800C00CEA03069E4220D183004FF01A
:100BE0000F0C0CFA03F7BC4305FA03FC4CEA0404AF
:100BF00091F803C0BCF1280F06D14FF0010C0CFA9C
:100C000000FCC2F814C00AE091F803C0BCF1480F20
:100C100005D14FF0010C0CFA00FCC2F810C0401CCA
:100C20000828D1D31460B1F800C0BCF1FF0F34DD47
:100C3000546800202EE000F1080C4FF0010808FA7B
:100C40000CF3B1F800C00CEA03069E4221D18300E8
:100C50004FF00F0C0CFA03F7BC4305FA03FC4CEA07
:100C6000040491F803C0BCF1280F05D100F1080C71
:100C700008FA0CF8C2F8148091F803C0BCF1480FD0
:100C800007D100F1080C4FF0010808FA0CF8C2F87F
:100C90001080401C0828CED35460BDE8F0814FF688
:100CA000FF710180022181700421C17070470246EA
:100CB000002093680B400BB1012000E0002070473A
:100CC0000146886880B2704702460020D3680B4016
:100CD0000BB1012000E0002070470146C86880B2D7
:100CE000704701617047416170470AB1016100E0DE
:100CF00041617047C16070474FF480320A4382619E
:100D00008161826182698269704702460020434B9B
:100D100018684FF68073184040EA021008433F4BB2
:100D2000186070473E49C8617047F0B50A46002315
:100D300000240021002500F00046B6F1004F02D14A
:100D4000364EF16901E0354E7168C0F3034583B258
:100D500000F44016B6F5401F08D121F070612F4E07
:100D6000766826F070662D4F7E6012E000F48016E3
:100D7000B6F5801F06D1032606FA05F4A14341F01B
:100D8000706106E0460D360103FA06F6B14341F004
:100D9000706122B1460D360103FA06F6314300F0C8
:100DA0000046B6F1004F02D11C4EF16101E01B4E2E
:100DB0007160F0BD30B500228B071C0F0F2303FAC2
:100DC00004F2164B08338C1053F824309343134C21
:100DD00008348D1044F8253023468C1053F8243005
:100DE0008C07240F00FA04F423430C4C08348D10B4
:100DF00044F8253030BD0A49DC31086070470000F6
:100E000000080140000C01400010014000140140A6
:100E100000180140001C014000200140000001407A
:100E200000002042DF48006840F00100DD49086012
:100E300008464068DC490840DA49486008460068CE
:100E4000DA490840D74908600846006820F4802045
:100E500008600846406820F4FE0048604FF41F0018
:100E600088607047CF49096821F48031CD4A11600C
:100E70001146096821F480211160B0F5803F03D04C
:100E8000B0F5802F0ED106E0C649096841F48031E3
:100E9000C44A116007E0C349096841F4A021C14A6E
:100EA000116000E000BF00BF704710B5014600228E
:100EB000002300204A11012A02D1BA4C236806E01F
:100EC000022A02D1B74C236A01E0B64C636A01F0F2
:100ED0001F02012494401C400CB1012000E00020BE
:100EE00010BD38B5002000900024002500BF31203F
:100EF000FFF7DBFF05460098401C00900098B0F516
:100F0000A06F01D0002DF2D03120FFF7CEFF08B145
:100F1000012400E00024204638BD01460020A14AFB
:100F2000106820F0F80040EAC10010607047A04946
:100F300008607047024600209A4B586820F47C10E5
:100F400042EA01031843974B586070479849086676
:100F5000704701460020934A506820F00300084380
:100F6000506070478F48406800F00C0070470146A1
:100F700000208C4A506820F0F00008435060704711
:100F800001460020874A506820F4E0600843506022
:100F9000704701460020834A506820F4605040EAC0
:100FA000C1005060704729B17E4A527A02437D4B9E
:100FB0005A7204E07B4A527A82437A4B5A727047E3
:100FC0007B49D8310860704701460020754A506857
:100FD00020F440400843506070470021714A20329D
:100FE0001170704A82F82010012802D004280AD11A
:100FF00004E001216B4A2032117005E00521694AA5
:101000002032117000E000BF00BF704769490860DE
:1010100070476449096A0143624A11627047654931
:1010200044390860704730B50021002200240023B5
:101030005C4D6D6805F00C0121B1042905D008292B
:1010400023D105E05C4D056022E05B4D05601FE0AB
:10105000544D6D6805F47012524D6D6805F480347E
:10106000022505EB92421CB9544D554305600BE037
:101070004C4D6D6805F400351DB1504D554305606C
:1010800002E04D4D5543056002E04B4D056000BF49
:1010900000BF444D6D6805F0F0010909484D6B5CD7
:1010A0000568DD4045603F4D6D6805F4E061090A63
:1010B000434D6B5C4568DD4085603A4D6D6805F4D5
:1010C0006051C90A3E4D6B5C4568DD40C560354DD9
:1010D0006D6805F44041890B3A4D6B5CC568B5FB02
:1010E000F3F5056130BD29B12E4A526902432D4BFB
:1010F0005A6104E02B4A526982432A4B5A61704775
:1011000029B1284A92690243264B9A6104E0254A94
:1011100092698243234B9A61704729B1214AD2696F
:101120000243204BDA6104E01E4AD26982431D4B20
:10113000DA61704729B11B4AD2680243194BDA6061
:1011400004E0184AD2688243164BDA60704729B12E
:10115000144A12690243134B1A6104E0114A1269DE
:101160008243104B1A61704712494039086070473A
:101170000F49C86470470B49C87170470948406AF5
:1011800040F0807007494862704701460020054AD8
:1011900092680A400AB1012000E00020704701492E
:1011A00088727047001002400000FFF8FFFFF6FE53
:1011B000000042428004424200127A0000093D00D1
:1011C000140000202400002010B50446FB4884428F
:1011D00009D101218803FFF7ADFF00214FF48040C2
:1011E000FFF7A8FF32E0F648844209D10121480404
:1011F000FFF7ADFF00214FF40030FFF7A8FF25E017
:10120000F048844209D101218804FFF7A0FF0021A2
:101210004FF48020FFF79BFF18E0EB48844209D190
:101220000121C804FFF793FF00214FF40020FFF7CE
:101230008EFF0BE0E548844208D101210805FFF745
:1012400086FF00214FF48010FFF781FF10BD2DE9CC
:10125000F04786B005460E460024A24600BFA146D0
:101260000027B08900B100BF2F462C8A4CF6FF70D2
:101270000440F08804432C82AC894EF6F3100440FD
:10128000B08831890843718908430443AC81AC8A32
:101290004FF6FF400440B0890443AC8201A8FFF739
:1012A000C2FEC648874202D1DDF810A001E0DDF899
:1012B0000CA0A88900F4004040B10AEBCA0000EB82
:1012C0000A1031684900B0FBF1F807E00AEBCA00E8
:1012D00000EB0A1031688900B0FBF1F86420B8FB1C
:1012E000F0F004012009642101FB1089A88900F4B1
:1012F000004040B1322000EBC900B0FBF1F000F03B
:101300000700044308E0322000EB09106421B0FB21
:10131000F1F000F00F0004432C8106B0BDE8F08727
:101320004FF41651016000218180C18001810C21A0
:10133000418100218181704710B502460020108A4A
:101340004FF2FF0318400B884C8823438C882343BB
:10135000CC8823431843108210BD002101804180B6
:101360008180C180704721B1828942F4005282811C
:1013700004E082894DF6FF731A4082817047F0B510
:101380000346002400260025002040F66A17B942D3
:1013900000D100BF1846C1F3421401F01F06012717
:1013A00007FA06F5012C01D10C3004E0022C01D122
:1013B000103000E014301AB107682F43076002E0D4
:1013C0000768AF430760F0BD1AB1838A0B4383827D
:1013D00002E0838A8B4383827047028A4FF6F07360
:1013E0001A400282028A0A430282704782894FF2BF
:1013F000FF731A40828182890A438281704721B13A
:10140000828942F00202828104E082894FF6FD73F4
:101410001A4082817047028A4FF6DF731A400282B7
:10142000028A0A430282704721B1028A42F4804252
:10143000028204E0028A4BF6FF731A400282704770
:10144000C1F308028280704701468888C0F3080013
:101450007047818941F0010181817047028BD2B2CE
:101460000283028B42EA012202837047028B02F45C
:101470007F420283028B0A430283704721B1828A32
:1014800042F02002828204E0828A4FF6DF731A4023
:101490008282704721B1828A42F01002828204E087
:1014A000828A4FF6EF731A408282704721B1828A96
:1014B00042F00802828204E0828A4FF6F7731A40F3
:1014C0008282704721B1828942F40042828103E026
:1014D0008289C2F30E028281704721B1828A42F46E
:1014E0000062828204E0828A4FF2FF731A40828295
:1014F0007047828A4FF6FB731A408282828A0A43BF
:101500008282704721B1828A42F00202828204E024
:10151000828A4FF6FD731A4082827047024600208D
:10152000B1F5007F00D100BF13880B400BB1012043
:1015300000E00020704701F40072B2F5007F00D196
:1015400000BFCA430280704770B5024600240023E2
:101550000025002040F66A16B14200D100BFC1F359
:10156000421501F01F03012606FA03F3012D02D1F3
:101570009689334006E0022D02D1168A334001E0FD
:10158000968A33400C12012606FA04F41688344079
:1015900013B10CB1012000E0002070BD10B5002295
:1015A000002340F66A14A14200D100BF0A120124B0
:1015B0009440A3B2DC43048010BD00000038014019
:1015C0000044004000480040004C004000500040F3
:1015D00070B501F06AFE4FF6FF7001F043FBA023E7
:1015E000F0221946002001F04DFF4FF4784001F041
:1015F0003CFB002507E0AAB2A8B24FF4A073A021DB
:1016000002F04AF80835F02DF5DB002408E004F17B
:10161000A00083B281B2F022002002F03DF808342D
:10162000A02CF4DB002001F020FB4FF4A073782203
:10163000A021104602F030F8F0231A461946002087
:1016400002F02AF870BD01B502E00098401E00903B
:1016500000980028F9D108BD07B5A8B0FBA1522019
:1016600001F09FFFFE48FFF7EEFFFE48006880B2E2
:101670002890FC48406880B22990FA48806880B27F
:101680002A9042F21070FFF7DEFFF7A1522001F01E
:1016900088FFF348FFF7D7FFF9A0DDE9281202F031
:1016A000D1FC289802F01BFBCDE91E01299802F01D
:1016B00016FBCDE91A01299802F011FBF24AF34B0F
:1016C000CDE9160102F025FACDE91801DDE91A236A
:1016D00002F01FFACDE91C01DDE91E2302F019FA20
:1016E000CDE92201299802F0FAFACDE91A012898E9
:1016F00002F0F5FACDE91601289802F0F0FAE44A72
:10170000E44BCDE9120102F004FACDE91401DDE960
:10171000162302F0FEF9CDE91801DDE91A2302F0E3
:10172000F8F9CDE91E01299802F0D9FACDE91601A0
:10173000299802F0D4FACDE91201299802F0CFFAE3
:10174000D54AD64BCDE90E0102F0E3F9CDE91001FF
:10175000DDE9122302F0DDF9CDE91401DDE91623FC
:1017600002F0D7F9CDE91A01289802F0B8FACDE9CC
:101770001201289802F0B3FACDE90E01289802F080
:10178000AEFAC74AC74BCDE90A0102F0C2F9CDE96A
:101790000C01DDE90E2302F0BCF9CDE91001DDE911
:1017A000122302F0B6F9CDE91601299802F097FA52
:1017B000CDE90E01289802F092FABB4ABB4BCDE965
:1017C0000A0102F0A6F9CDE90C01DDE90E2302F0D1
:1017D000A0F9CDE91201299802F081FACDE90A01B8
:1017E000299802F07CFAB24AB24BCDE9060102F028
:1017F00090F9CDE90801DDE90A2302F08AF9CDE983
:101800000E01289802F06BFACDE90601289802F043
:1018100066FAA94AA94BCDE9020102F07AF9CDE9AD
:101820000401DDE9062302F074F9CDE90A012998E3
:1018300002F055FAA24AA34BCDE9020102F069F980
:10184000CDE90601289802F04AFA9F4A9F4BCDE95C
:10185000000102F05EF99E4A9E4BCDE9020102F0C2
:10186000B1F8CDE90401DDE9062302F0ABF8CDE9DA
:101870000801DDE90A2302F0A5F8CDE90C01DDE954
:101880000E2302F09FF8CDE91001DDE9122302F0EA
:1018900099F8CDE91401DDE9162302F093F8CDE9BA
:1018A0001801DDE91A2302F08DF8CDE91C01DDE90C
:1018B0001E2302F087F8CDE92001DDE9222302F0A2
:1018C00081F8CDE9240102F03EFA2790299802F030
:1018D00006FACDE91E012A9802F001FACDE91A01B3
:1018E0002A9802F0FCF97C4A7C4BCDE9160102F003
:1018F00010F9CDE91801DDE91A2302F00AF9CDE962
:101900001C01DDE91E2302F004F9CDE922012A9829
:1019100002F0E5F9CDE91A01299802F0E0F9CDE9E4
:101920001601299802F0DBF96D4A6E4BCDE91201E0
:1019300002F0EFF8CDE91401DDE9162302F0E9F831
:10194000CDE91801DDE91A2302F0E3F8CDE91E0123
:101950002A9802F0C4F9CDE916012A9802F0BFF9DD
:10196000CDE912012A9802F0BAF95F4A5F4BCDE93E
:101970000E0102F0CEF8CDE91001DDE9122302F0EC
:10198000C8F8CDE91401DDE9162302F0C2F8CDE96B
:101990001A01299802F0A3F9CDE91201299802F061
:1019A0009EF9CDE90E01299802F099F9504A514B60
:1019B000CDE90A0102F0ADF8CDE90C01DDE90E2315
:1019C00002F0A7F8CDE91001DDE9122302F0A1F839
:1019D000CDE916012A9802F082F9CDE90E01299885
:1019E00002F07DF9444A454BCDE90A0102F091F835
:1019F000CDE90C01DDE90E2302F08BF8CDE91201EF
:101A00002A9802F06CF9CDE90A012A9802F067F9E8
:101A10003B4A3C4BCDE9060102F07BF8CDE90801D9
:101A2000DDE90A2302F075F8CDE90E01299802F0EC
:101A300056F9CDE90601299802F051F9324A334BA3
:101A4000CDE9020102F065F862E000007374617292
:101A500074202063616C6962726174696F6E210029
:101A6000EEEEFF00D00200207065726665637420A0
:101A70002063616C6962726174696F6E210000009D
:101A800025640A25640A0000FCF529FDF872C7BE2A
:101A9000B3C7DD257998CF3E3EDB924200E8AFBE6A
:101AA000005690300F8A823E24C9CCFC1AAA60BF2F
:101AB0000ADE803B16D4773FCDD5C21FB7AA70BFD0
:101AC000E8F47B92150A14C0989E9E25B1EF13404E
:101AD0009108DECA91DB6140241AF7E46F3EE43ED0
:101AE000E02D29787725E5BEC5640F3EC31EC1BE33
:101AF000E5D45A8951266CBE25E263486100563F01
:101B0000C65D6483CD3968BF166F42210ABD7E3F32
:101B1000CDE90401DDE9062301F0FBFFCDE90A016F
:101B20002A9802F0DCF8FE4AFE4BCDE9020101F0F2
:101B3000F0FFCDE90601299802F0D1F8FA4AFB4BF3
:101B4000CDE9000101F0E5FFF94AFA4BCDE90201C8
:101B500001F038FFCDE90401DDE9062301F032FF91
:101B6000CDE90801DDE90A2301F02CFFCDE90C01E4
:101B7000DDE90E2301F026FFCDE91001DDE9122396
:101B800001F020FFCDE91401DDE9162301F01AFF71
:101B9000CDE91801DDE91A2301F014FFCDE91C019C
:101BA000DDE91E2301F00EFFCDE92001DDE922234E
:101BB00001F008FFCDE9240102F0C5F8269026982F
:101BC00002F0AEF8CDE92401279802F0A9F8CDE99A
:101BD0002201DDE92401CDE90001D7A0DDE92223BE
:101BE00002F030FA279802F09BF80022D54BCDE99D
:101BF000220101F0E7FECDE9240102F0A4F8D24968
:101C00000860D249269808602BB000BD2DE9F0414C
:101C100005460C464FF08241284601F0A1FE0546DC
:101C200021464FF0824001F09BFE0446C8492846F9
:101C300001F03EFE05462146C64801F08BFE0446F3
:101C4000204602F059F886B2284602F055F887B2CD
:101C5000012302223146384601F078FBBDE8F081CD
:101C60002DE9F74FD2B00C469146529802F058F841
:101C700005460022B84B01F0BEFF074602F063F8AC
:101C8000019002F04DF882464FF06632B34B01F0FE
:101C900040FFCDE9020102F056F85190204602F0D3
:101CA0003FF807460022AC4B01F0A5FF054602F0C5
:101CB0004AF8824602F034F84FF06632A74BCDE97D
:101CC000000101F026FFCDE9020102F03CF850903E
:101CD000484602F025F8054600229F4B01F08BFF95
:101CE000CDE9000102F02FF8824602F019F807460C
:101CF0004FF06632994B01F00CFFCDE9020102F082
:101D000022F84F90529802F00BF805460E46519873
:101D100002F006F807463A460B4691A136A8CDE9EF
:101D2000005602F09FF9204601F0FAFF05460E46E4
:101D3000509801F0F5FF07463A460B468FA11DA8C3
:101D4000CDE9005602F08EF9484601F0E9FF07465A
:101D500088464F9801F0E4FF05462A460B468EA1BF
:101D600004A8CDE9007802F07DF94FF4784000F046
:101D70007CFF36A9162001F014FC1DA92A2001F0D1
:101D800010FC04A93E2001F00CFC8AA1022001F005
:101D900008FC55B0BDE8F08F2DE9F047B4B004461B
:101DA0000D4616469946DDF8F0A00021484601F0A0
:101DB000E7FF01D2012700E000270021504601F093
:101DC000DFFF01D2012000E000200740BFB14846FC
:101DD00001F0A6FF07463A460B4679A127A802F074
:101DE00041F9504601F09CFF07463A460B4679A15F
:101DF0001AA802F037F97CA101A802F033F90021FA
:101E0000484601F0BDFF01D2012700E00027002174
:101E1000504601F0BFFF01D2012000E00020074042
:101E2000BFB1484601F07CFF07463A460B4664A125
:101E300027A802F017F9504601F072FF07463A460C
:101E40000B4664A11AA802F00DF96EA101A802F0D8
:101E500009F90021484601F09DFF01D2012700E069
:101E600000270021504601F08BFF01D2012000E045
:101E700000200740BFB1484601F052FF07463A46EE
:101E80000B464FA127A802F0EDF8504601F048FF9D
:101E900007463A460B464FA11AA802F0E3F860A1A4
:101EA00001A802F0DFF80021484601F073FF01D2DB
:101EB000012700E000270021504601F06BFF01D20E
:101EC000012000E000200740BFB1484601F028FF94
:101ED00007463A460B463AA127A802F0C3F85046F7
:101EE00001F01EFF07463A460B463AA11AA802F037
:101EF000B9F852A101A802F0B5F84FF4784000F00B
:101F0000B4FE002000F0AEFE27A9522001F049FBEC
:101F10001AA9662001F045FB01A97A209CE0000087
:101F20003A058A03E22CFA3FE9D9BF53691619C072
:101F3000D5A3262C1F329340252E33660A252E3337
:101F4000660A0000000018402C000020300000202D
:101F50000000F042000070430000B04066660A4096
:101F60005643303A252E356620202020202043304D
:101F70003D252E6620202020202000005641323AA8
:101F8000252E356620202020202041323D252E663A
:101F900020202020202000005641333A252E35668F
:101FA00020202020202041333D252E662020202087
:101FB00020200000766F6C746167653A00000000B5
:101FC000783D252E33662020202020202020202030
:101FD00000000000793D252E33662020202020209F
:101FE000202020200000000054686520706F696E7A
:101FF0007420697320696E207175616472616E74FA
:102000002020330054686520706F696E74206973F6
:1020100020696E207175616472616E7420203200D7
:1020200054686520706F696E7420697320696E2032
:102030007175616472616E7420203400546865208B
:10204000706F696E7420697320696E2071756164A8
:1020500072616E742020310001F0A3FAB4F5FA7FAA
:1020600001DC012000E00020B5F5FA7F01DC012150
:1020700000E000210840B6F5FA7F01DC012100E014
:102080000021084020B1FCA18E2001F08AFA03E073
:10209000FEA18E2001F085FA34B0BDE8F087B2B021
:1020A000002030902F902B902A9000F016FD01F028
:1020B000F1FB002000F0D6FD01F0F7F84FF6FF70BD
:1020C00000F0D0FDA023F0221946002001F0DAF93B
:1020D0004FF4784000F0C9FD002030900EE03098B9
:1020E00080B22990309880B24FF4A0732890A0213C
:1020F000299A01F0D1FA3098083030903098F028C1
:10210000EDDB00202F9010E02F98A03080B22990B6
:102110002F98A03080B22890F02201460020299B01
:1021200001F0BAFA2F9808302F902F98A028EBDBF7
:10213000002000F09AFD4FF4A0737822A0211046F1
:1021400001F0AAFAF0231A461946002001F0A4FA79
:10215000DFE300202B902A9030901CE0D0480068EC
:1021600081B2D04A309822F81010CD48406882B22F
:10217000CC48C830309920F81120C948806882B214
:10218000C948309920F8112042F21070FFF75BFA2D
:102190003098401C309030980A28DFDB00203090C7
:1021A00033E0C0493098401C31F81010BD4A3098D7
:1021B00032F81000084481B23098401C22F8101008
:1021C00002F1C8013098401C31F8102008463099BF
:1021D00030F81100104482B2B249C8313098401C26
:1021E00021F81020C8313098401C31F810200846E2
:1021F000309930F81100104482B2AB493098401C3D
:1022000021F810203098401C309030980A28C8DB04
:10221000A448408A0A2190FBF1F080B22C90A1489A
:10222000B0F8DA0090FBF1F080B22D909D48B0F844
:10223000A20190FBF1F080B22E909CA02CA90EC9B7
:1022400001F000FF9C48006801F06AFDCDE926011D
:102250002C9801F044FDCDE91E012D9801F03FFDC1
:10226000CDE91A012D9801F03AFD944A944BCDE93D
:10227000160101F04EFCCDE91801DDE91A2301F049
:1022800048FCCDE91C01DDE91E2301F042FCCDE94B
:1022900022012D9801F023FDCDE91A012C9801F0BF
:1022A0001EFDCDE916012C9801F019FD854A864BDB
:1022B000CDE9120101F02DFCCDE91401DDE9162371
:1022C00001F027FCCDE91801DDE91A2301F021FC1A
:1022D000CDE91E012D9801F002FDCDE916012D98E2
:1022E00001F0FDFCCDE912012D9801F0F8FC774AD0
:1022F000774BCDE90E0101F00CFCCDE91001DDE9D1
:10230000122301F006FCCDE91401DDE9162301F0EA
:1023100000FCCDE91A012C9801F0E1FCCDE9120195
:102320002C9801F0DCFCCDE90E012C9801F0D7FCD3
:10233000684A694BCDE90A0101F0EBFBCDE90C01DC
:10234000DDE90E2301F0E5FBCDE91001DDE9122303
:1023500001F0DFFBCDE916012D9801F0C0FCCDE9BD
:102360000E012C9801F0BBFC5C4A5D4BCDE90A01E3
:1023700001F0CFFBCDE90C01DDE90E2301F0C9FB33
:10238000CDE912012D9801F0AAFCCDE90A012D98A2
:1023900001F0A5FC534A544BCDE9060101F0B9FB0D
:1023A000CDE90801DDE90A2301F0B3FBCDE90E0117
:1023B0002C9801F094FCCDE906012C9801F08FFCDB
:1023C0004A4A4B4BCDE9020101F0A3FBCDE90401E0
:1023D000DDE9062301F09DFBCDE90A012D9801F00E
:1023E0007EFC444A444BCDE9020101F092FBCDE969
:1023F00006012C9801F073FC404A414BCDE90001E5
:1024000001F087FB3F4A404BCDE9020101F0DAFAC7
:10241000CDE90401DDE9062301F0D4FACDE9080194
:10242000DDE90A2301F0CEFACDE90C01DDE90E2346
:1024300001F0C8FACDE91001DDE9122301F0C2FA7A
:10244000CDE91401DDE9162301F0BCFACDE918014C
:10245000DDE91A2301F0B6FACDE91C01DDE91E23FE
:1024600001F0B0FACDE92001DDE9222301F0AAFA5A
:10247000CDE924014AE000004E30202042727573FD
:10248000682020746F756368210000004F4B212085
:1024900042727573682020746F7563682E000000A7
:1024A000D0020020780000200802002025642C259E
:1024B000642C25640A0000002C000020FCF529FD96
:1024C000F872C7BEB3C7DD257998CF3E3EDB924296
:1024D00000E8AFBE005690300F8A823E24C9CCFC83
:1024E0001AAA60BF0ADE803B16D4773FCDD5C21F43
:1024F000B7AA70BFE8F47B92150A14C0989E9E2577
:10250000B1EF13409108DECA91DB6140DDE926237B
:1025100001F0F9FACDE9280101F015FC2B90FD48F6
:10252000006801F0FDFBCDE926012D9801F0D7FBF5
:10253000CDE91E012E9801F0D2FBCDE91A012E98AB
:1025400001F0CDFBF44AF54BCDE9160101F0E1FABB
:10255000CDE91801DDE91A2301F0DBFACDE91C0110
:10256000DDE91E2301F0D5FACDE922012E9801F014
:10257000B6FBCDE91A012D9801F0B1FBCDE91601AA
:102580002D9801F0ACFBE64AE64BCDE9120101F0D3
:10259000C0FACDE91401DDE9162301F0BAFACDE95C
:1025A0001801DDE91A2301F0B4FACDE91E012E98D5
:1025B00001F095FBCDE916012E9801F090FBCDE9D5
:1025C00012012E9801F08BFBD74AD84BCDE90E01B2
:1025D00001F09FFACDE91001DDE9122301F099FA2B
:1025E000CDE91401DDE9162301F093FACDE91A01D2
:1025F0002D9801F074FBCDE912012D9801F06FFBCD
:10260000CDE90E012D9801F06AFBC94AC94BCDE90D
:102610000A0101F07EFACDE90C01DDE90E2301F09B
:1026200078FACDE91001DDE9122301F072FACDE963
:1026300016012E9801F053FBCDE90E012D9801F003
:102640004EFBBD4ABD4BCDE90A0101F062FACDE96E
:102650000C01DDE90E2301F05CFACDE912012E98A0
:1026600001F03DFBCDE90A012E9801F038FBB44A98
:10267000B44BCDE9060101F04CFACDE90801DDE9E2
:102680000A2301F046FACDE90E012D9801F027FB4F
:10269000CDE906012D9801F022FBAB4AAB4BCDE909
:1026A000020101F036FACDE90401DDE9062301F06B
:1026B00030FACDE90A012E9801F011FBA44AA54B8E
:1026C000CDE9020101F025FACDE906012D9801F0CE
:1026D00006FBA14AA14BCDE9000101F01AFAA04A7C
:1026E000A04BCDE9020101F06DF9CDE90401DDE96E
:1026F000062301F067F9CDE90801DDE90A2301F0BD
:1027000061F9CDE90C01DDE90E2301F05BF9CDE9BA
:102710001001DDE9122301F055F9CDE91401DDE9DD
:10272000162301F04FF9CDE91801DDE91A2301F074
:1027300049F9CDE91C01DDE91E2301F043F9CDE99A
:102740002001DDE9222301F03DF9CDE92401DDE995
:10275000262301F0D8F9CDE9280101F0F4FA2A90F6
:1027600081492B9801F016FB7ED88048006801F063
:10277000D7FACDE926012C9801F0B1FACDE91E0176
:102780002E9801F0ACFACDE91A012E9801F0A7FAC3
:10279000774A784BCDE9160101F0BBF9CDE9180174
:1027A000DDE91A2301F0B5F9CDE91C01DDE91E23AD
:1027B00001F0AFF9CDE922012E9801F090FACDE9B0
:1027C0001A012C9801F08BFACDE916012C9801F032
:1027D00086FA694A694BCDE9120101F09AF9CDE90F
:1027E0001401DDE9162301F094F9CDE91801DDE9C2
:1027F0001A2301F08EF9CDE91E012E9801F06FFA2F
:10280000CDE916012E9801F06AFACDE912012E9851
:1028100001F065FA5A4A5B4BCDE90E0101F079F9F6
:10282000CDE91001DDE9122301F073F9CDE91401BE
:10283000DDE9162301F06DF9CDE91A012C9801F0BC
:102840004EFACDE912012C9801F049FACDE90E01BA
:102850002C9801F044FA4C4A4C4BCDE90A0101F0A6
:1028600058F9CDE90C0100E0F2E0DDE90E2301F0BA
:1028700050F9CDE91001DDE9122301F04AF9CDE963
:1028800016012E9801F02BFACDE90E012C9801F0DB
:1028900026FA3F4A3F4BCDE90A0101F03AF9CDE96A
:1028A0000C01DDE90E2301F034F9CDE912012E9877
:1028B00001F015FACDE90A012E9801F010FA364A16
:1028C000364BCDE9060101F024F9CDE90801DDE937
:1028D0000A2301F01EF9CDE90E012C9801F0FFF951
:1028E000CDE906012C9801F0FAF92D4A2D4BCDE9DE
:1028F000020101F00EF9CDE90401DDE9062301F042
:1029000008F9CDE90A012E9801F0E9F9264A274B8A
:102910004EE0C5E030000020241AF7E46F3EE43EAC
:10292000E02D29787725E5BEC5640F3EC31EC1BEE4
:10293000E5D45A8951266CBE25E263486100563FB2
:10294000C65D6483CD3968BF166F42210ABD7E3FE4
:102950003A058A03E22CFA3FE9D9BF53691619C038
:10296000D5A3262C1F3293400000A0402C0000204D
:102970009F45A889A6BBE5BE75DFFACDC5BAE23E84
:102980006825062F08F2B33E1664DF11368A8F3EA3
:1029900068DA9A50A318543FF0FB124EE438753FA2
:1029A000B89D2F1DFDC17CBFEEF3E9F061EC0FC0B7
:1029B000CDE9020101F0ADF8CDE906012C9801F056
:1029C0008EF9384A384BCDE9000101F0A2F8374AB8
:1029D000374BCDE9020100F0F5FFCDE90401DDE957
:1029E000062300F0EFFFCDE90801DDE90A2300F03E
:1029F000E9FFCDE90C01DDE90E2300F0E3FFCDE9AD
:102A00001001DDE9122300F0DDFFCDE91401DDE95D
:102A1000162300F0D7FFCDE91801DDE91A2300F0F5
:102A2000D1FFCDE91C01DDE91E2300F0CBFFCDE98C
:102A30002001DDE9222300F0C5FFCDE92401DDE915
:102A4000262301F060F8CDE9280101F07CF92B90F4
:102A50002A980090DDE92B30DDE92D12FFF79CF973
:102A60002E9801F037F929902D9801F033F928902C
:102A70002C9801F02FF92790DDE92812FFF7F0F8E4
:102A8000DDE92A10FFF7C2F82C98322801DCFEF7A6
:102A90009FFD2D98642803DC2CA807C8FEF7DCFDF9
:102AA000FFF757BBF8D95CF9FC7813407695465E82
:102AB0003F8372C008B54FF4A060FDF745FC2520A8
:102AC0008DF8000001208DF801008DF802008DF8CE
:102AD00003006846FDF73DFC08BD00B585B0012147
:102AE0000420FEF70DFB01218803FEF709FB4FF4DC
:102AF0000070ADF8100018208DF8130003208DF839
:102B0000120004A94E48FEF73FF84FF48060ADF87C
:102B1000100004208DF8130004A94948FEF734F88A
:102B20004FF4E13000900020ADF80400ADF806004D
:102B3000ADF80800ADF80C000C20ADF80A006946AD
:102B40004048FEF784FB01213E48FEF70CFC05B02F
:102B500000BD70B504460D4629462046FEF770FCC0
:102B600000BF80212046FEF7D9FC0028F9D070BDB7
:102B70002DE9F04107460D461646002405E0295D83
:102B80003846FFF7E6FF601CC4B2B442F7DB00BF73
:102B900040213846FEF7C2FC0028F9D0BDE8F0819C
:102BA00070B506460C46002500BF615D3046FFF754
:102BB000D0FF6D1C605D0028F7D100BF402130467A
:102BC000FEF7ACFC0028F9D070BD2DE9F0410546B8
:102BD0000C46260AE7B231462846FEF731FC00BF14
:102BE00080212846FEF79AFC0028F9D0394628466D
:102BF000FEF726FC00BF80212846FEF78FFC002848
:102C0000F9D0BDE8F08170B504460D46E1B20D483B
:102C1000FEF716FC00BF80210A48FEF77FFC002863
:102C2000F9D0204670BD10B5044600BF20210548EC
:102C3000FEF774FC0028F9D00248FEF705FC10BD31
:102C40000008014000380140704700BFFEE700BFA8
:102C5000FEE700BFFEE700BFFEE770477047704722
:102C600070470000FE4908807047FE4908807047A1
:102C700001B502E00098401E009000980028F9D1AC
:102C800008BD08B501210846FEF73AFA0121F648C9
:102C9000FEF74BF801213820FEF732FA1020ADF88C
:102CA000000003208DF8020010208DF80300694613
:102CB000EE48FDF769FF2020ADF800006946EB48BB
:102CC000FDF762FF4020ADF800006946E748FDF7D8
:102CD0005BFF8020ADF800006946E448FDF754FF33
:102CE0000420ADF800006946E148FDF74DFF4FF6BE
:102CF000FF70ADF800006946DE48FDF745FF04218E
:102D0000DB48FDF7F0FF08BD10B504461021D74899
:102D1000FDF7E9FF8021D548FDF7E5FF2021D348E5
:102D2000FDF7DFFFD3480C3004604021CF48FDF7AA
:102D3000DAFF4021CD48FDF7D4FF1021CB48FDF745
:102D4000D0FF10BD10B504461021C848FDF7CBFFD9
:102D50008021C648FDF7C5FF2021C448FDF7C1FF0B
:102D6000C4480C3004604021C048FDF7BCFF40213E
:102D7000BE48FDF7B6FF1021BC48FDF7B2FF10BDFD
:102D800038B54FF6FF70ADF8000003208DF8020053
:102D900048208DF803006946B648FDF7F5FE10217E
:102DA000B248FDF7A0FF8021B048FDF79AFF40210F
:102DB000AE48FDF796FF2021AC48FDF794FFAD48E3
:102DC000FDF77EFF04462021A848FDF78AFF102169
:102DD000A648FDF786FF4FF6FF70ADF80000032010
:102DE0008DF8020010208DF803006946A148FDF718
:102DF000CBFE204638BD10B50024D320FFF784FF5A
:102E0000FFF7BEFFFFF7BCFFFFF7BAFF04464FF620
:102E1000FF7000EA0424FFF7B3FF0443204610BD0F
:102E200008B501210846FEF76BF901213820FEF7AD
:102E300067F901218C48FDF778FF03208DF8020027
:102E400010208DF803004FF6FF70ADF800006946C2
:102E50008848FDF799FE2020ADF8000069468348B8
:102E6000FDF792FE4020ADF8000069467F48FDF76F
:102E70008BFE1020ADF8000069467C48FDF784FE0B
:102E80008020ADF8000069467848FDF77DFE0420FB
:102E9000ADF8000069467648FDF776FE08BD10B52E
:102EA0004FF6FF70FFF7E4FECF20FFF72DFF002065
:102EB000FFF748FF8120FFF745FF3020FFF742FF73
:102EC0004FF6FF70FFF7D4FEED20FFF71DFF6420E3
:102ED000FFF738FF0320FFF735FF1220FFF732FF1F
:102EE0008120FFF72FFF4FF6FF70FFF7C1FEE820AC
:102EF000FFF70AFF8520FFF725FF1020FFF722FFCD
:102F00007820FFF71FFF4FF6FF70FFF7B1FECB20D1
:102F1000FFF7FAFE3920FFF715FF2C20FFF712FF0D
:102F20000020FFF70FFF3420FFF70CFF0220FFF710
:102F300009FF4FF6FF70FFF79BFEF720FFF7E4FE57
:102F40002020FFF7FFFE4FF6FF70FFF791FEEA200B
:102F5000FFF7DAFE0020FFF7F5FE0020FFF7F2FE94
:102F60004FF6FF70FFF784FEB120FFF7CDFE002083
:102F7000FFF7E8FE1B20FFF7E5FE4FF6FF70FFF7B7
:102F800077FEB620FFF7C0FE0A20FFF7DBFEA22087
:102F9000FFF7D8FE4FF6FF70FFF76AFEC020FFF77D
:102FA000B3FE3520FFF7CEFE4FF6FF70FFF760FE51
:102FB000C120FFF7A9FE1120FFF7C4FEC520FFF7CF
:102FC000A3FE4520FFF7BEFE4520FFF7BBFEC7204E
:102FD000FFF79AFEA220FFF7B5FEF220FFF794FE5E
:102FE0000020FFF7AFFE2620FFF78EFE0120FFF73F
:102FF000A9FE4FF6FF70FFF73BFEE020FFF784FECF
:103000000F20FFF79FFE2620FFF79CFE2420FFF7EE
:1030100099FE0B20FFF796FE0E20FFF793FE092086
:10302000FFF790FE5420FFF78DFEA820FFF78AFEE1
:103030004620FFF787FE0C20FFF784FE1720FFF7DE
:1030400081FE0920FFF77EFE0F20FFF77BFE0720A1
:10305000FFF778FE0020FFF775FEE1200CE000008E
:10306000400000204200002000023000001001401B
:1030700000140140000C0140FFF746FE0020FFF75E
:1030800061FE1920FFF75EFE1B20FFF75BFE0420A8
:10309000FFF758FE1020FFF755FE0720FFF752FEFE
:1030A0002A20FFF74FFE4720FFF74CFE3920FFF79D
:1030B00049FE0320FFF746FE0620FFF743FE0620E9
:1030C000FFF740FE3020FFF73DFE3820FFF73AFEC5
:1030D0000F20FFF737FE4FF6FF70FFF7C9FD3620D0
:1030E000FFF712FEC820FFF72DFE4FF6FF70FFF727
:1030F000BFFD2A20FFF708FE0020FFF723FE002077
:10310000FFF720FE0020FFF71DFEEF20FFF71AFE5D
:103110004FF6FF70FFF7ACFD2B20FFF7F5FD002009
:10312000FFF710FE0020FFF70DFE0120FFF70AFE5B
:103130003F20FFF707FE4FF6FF70FFF799FD3A209B
:10314000FFF7E2FD5520FFF7FDFD1120FFF7DCFD45
:10315000FE48FFF78DFD4FF6FF70FFF789FD292030
:10316000FFF7D2FD10BD10B50446072C00DD10BDE1
:10317000F7480470204604EBD0714910A4EB4101DC
:1031800039B9F020F34908804FF4A070F249088063
:1031900006E04FF4A070EF490880F020EE49088067
:1031A0003620FFF7B1FD082141EA4410FFF7CAFDC0
:1031B0002A20FFF7A9FD0020FFF7C4FD0020FFF73C
:1031C000C1FDE4490988491EC1F30720FFF7BAFD94
:1031D000E0490978491EC8B2FFF7B4FD2B20FFF77C
:1031E00093FD0020FFF7AEFD0020FFF7ABFDDA49AD
:1031F0000988491EC1F30720FFF7A4FDD6490978C5
:10320000491EC8B2FFF79EFD2C20FFF77DFD00BFD1
:10321000ADE72DE9F04104460D4616461F462A202B
:10322000FFF772FD200AFFF78DFDE0B2FFF78AFD80
:10323000A119491EC1F30720FFF784FDA119491EFA
:10324000C8B2FFF77FFD2B20FFF75EFD280AFFF7CE
:1032500079FDE8B2FFF776FDE919491EC1F30720B1
:10326000FFF770FDE919491EC8B2FFF76BFDBDE815
:10327000F0812DE9F0410746884614461D462B464D
:10328000224641463846FFF7C4FF2C20FFF73CFD9D
:10329000002604E0B1480088FFF754FD761C04FBCB
:1032A00005F0B042F6D8BDE8F08110B5FFF7E9FCB3
:1032B000FFF7F5FD0620FFF756FFA7480388A5484E
:1032C000028800210846FFF7D4FF10BD70B5044600
:1032D0000D4601231A4629462046FFF79AFF2C2067
:1032E000FFF712FD9E480088FFF72CFD70BD70B5FA
:1032F00004460D4600262C20FFF706FD00BF03E024
:103300002846FFF71FFD761CA642F9D370BD70B5A5
:1033100004460D4601231A4629462046FFF779FF49
:1033200070BD70B505460C468A48008885420CDAA7
:1033300089480088844208DA21462846FFF7E7FFDB
:10334000874801880120FFF7D2FF70BD2DE9F05FAB
:1033500005460E4691469B4600240FFA89F7032046
:10336000A0EB49000FFA80FA87E0BBF1000F40D0D4
:10337000A0463BE006EB080291B22A1990B2FFF793
:10338000D0FF06EB080291B22A1B90B2FFF7C9FFEB
:10339000321991B2A5EB080290B2FFF7C2FF321BBF
:1033A00091B2A5EB080290B2FFF7BBFFA6EB0802B3
:1033B00091B22A1B90B2FFF7B4FFA6EB080291B2BC
:1033C0002A1990B2FFF7ADFF321B91B205EB08024C
:1033D00090B2FFF7A6FF321991B205EB080290B246
:1033E000FFF79FFF08F101000FFA80F8B845C1DD33
:1033F0002FE0F21991B22A1990B2FFF792FFF21959
:1034000091B22A1B90B2FFF78CFF321991B2EA1BDE
:1034100090B2FFF786FF321B91B2EA1B90B2FFF722
:1034200080FFF21B91B22A1B90B2FFF77AFFF21BCA
:1034300091B22A1990B2FFF774FF321B91B2EA19C8
:1034400090B2FFF76EFF321991B2EA1990B2FFF70E
:1034500068FF601C04B2BAF1000F05DAA000801DFD
:1034600050440FFA80FA07E0E01B80000A30504415
:103470000FFA80FA781E07B200BFBC427FF775AF23
:10348000BDE8F09F2DE9F04106460F4614461D4663
:103490002B46224639463046FFF7BBFE04FB05F0BB
:1034A0002E490988FFF723FFBDE8F08170B500249D
:1034B000002500262E20FFF727FCFFF761FC0446BD
:1034C000FFF75EFC0446FFF75BFC0646FFF758FC7F
:1034D0000546E012C002A91240EA411040EAE62087
:1034E00070BD70B504460D4629462046FFF70FFF14
:1034F000FFF7DCFF0646304670BD2DE9F05F8046E1
:1035000089461646A6F120001FFA80FA1549096877
:103510008988144A1268D28801FB02F0C11700EBB7
:103520005171C1F3C7070F48006800680AFB070B19
:103530000C480068C3880B480068828849464046AA
:10354000FFF767FE2C20FFF7DFFB0DE0FCBF02005A
:103550003800002034000020360000204000002009
:10356000420000203C000020002416E0002510E06E
:103570001BF8040080212941084020B16E480088D2
:10358000FFF7E0FB03E06D480088FFF7DBFB681CFA
:10359000C5B2082DECDB601CC4B2BC42E6DBBDE862
:1035A000F09F70B504460D46002624E0304664497D
:1035B00009688988084463490988884205DD00262E
:1035C0005F480068C088204484B220465C4909688E
:1035D000C98808445C490988884201DD0026002426
:1035E0002A7821463046FFF788FF6D1C5448006852
:1035F0008088304486B228780028D7D170BD70B555
:1036000005460E46144624E030464D490968C988EF
:1036100008444D490988884205DD0026484800686D
:103620008088284485B22846454909688988084425
:1036300044490988884201DD002500262278314668
:103640002846FFF75AFF641C3D480068C088304494
:1036500086B220780028D7D170BD394908607047FC
:10366000374800687047344A1080344A11807047E8
:10367000314A12880280314A12880A80704770B538
:103680000446FFF7EDFFC5882B462E4802882146E9
:103690000020FFF7F7FE70BD2DE9FF4F83B0814694
:1036A0004FF0000AD3460598A0EB09050499069847
:1036B000461ACDF8049004980090002D01DD0127F2
:1036C00005E00DB9002702E04FF0FF376D42002EF4
:1036D00002DD4FF0010806E016B94FF0000802E0E5
:1036E0004FF0FF387642B54201DD2C4600E034460B
:1036F0000020029019E0DDE90010FFF712FEAA4455
:10370000B344A24505DDAAEB040A0198384480B20F
:103710000190A34505DDABEB040B0098404480B25B
:1037200000900298401C80B20290611C029888426E
:10373000E1DD07B0BDE8F08F42000020400000202E
:103740003C000020340000203600002008B5012194
:103750001020FDF7D5FC2F20ADF8000000208DF8DB
:10376000030069464E48FDF70FFA08BD00B591B059
:1037700001210846FDF7B7FC01214802FDF7C0FC16
:103780004848FDF777F848480690484807900020D9
:1037900008900620099000200A9080200B9040009D
:1037A0000C9080000D9020200E9000020F900020C1
:1037B000109006A93B48FDF7FFF801213948FDF7B5
:1037C00026F90020019001208DF808008DF80900ED
:1037D0004FF4602003900020049006208DF8140020
:1037E00001A931484C38FCF744FE4FF44040FDF746
:1037F000EBFB052301220A212B484C38FCF7D1FEB4
:10380000052302220B2128484C38FCF7CAFE052369
:103810000322022124484C38FCF7C3FE052304226E
:103820000D2121484C38FCF7BCFE05231A46032124
:103830001D484C38FCF7B5FE052306220F211A4817
:103840004C38FCF7AEFE012117484C38FCF748FE17
:10385000012115484C38FCF738FE13484C38FCF76A
:1038600056FE00BF10484C38FCF756FE0028F9D130
:103870000D484C38FCF75AFE00BF0B484C38FCF79B
:103880005AFE0028F9D1012107484C38FCF75DFEAB
:1038900011B000BD10B5FFF759FFFFF767FF10BD6E
:1038A00000100140080002404C240140D0020020DA
:1038B000F0B480EA0102D40F4200B2EB410F02D211
:1038C0000246084611464A0042D0C30DDDB2C1F39C
:1038D000C752AD1A202D35DAC1F3160141F40002AA
:1038E00004B15242C5F1200602FA06F12A41104401
:1038F000B3EBD05F23D0C4B1012DA0EBC35009DCE2
:10390000F0BC4FF0004202EAC352DBB200F5000007
:1039100000F0BBBA400000F1807000EBC350A0F192
:10392000807040EAD170490009E0490841EAC0715D
:10393000A0EBC35000F50000400800EBC350F0BC02
:1039400000F09ABA6142012202EB4101001BF6E746
:10395000F0BC704781F00041AAE780F00040A7E783
:1039600080EA010210B502F00043400022D04A0074
:103970001FD0010E01EB1261C0F35600C2F35602D4
:1039800040F4000042F40002A0FB022000047F3952
:10399000140400D0401C50EA124001D44000491EDB
:1039A000C2B20C0604EBD010401C4008802A02D0A2
:1039B00003E0002010BD20F00100002900DA002003
:1039C000184310BD2DE9FE4F804681EA0300C00F69
:1039D0000C46009021F0004123F00045B8EB0200B6
:1039E000A94105D24046214690461C460B46024658
:1039F00023F00040104347D0270DC7F30A00C3F35C
:103A00000A510290401A019040286BDAC3F3130068
:103A100040F4801B0098924620B10023D2EB030AA9
:103A200063EB0B0B01985946C0F14002504600F081
:103A300002FA06460D4650465946019A00F00AFA27
:103A400010EB08006141002487EA115284EAE77311
:103A50001A4340D0009A62B3019A012A4FEA0752F2
:103A600015DC001B61EB02014FF0004202EA075235
:103A7000CDE90042001C41F5801132462B4600F092
:103A800041FA03B0BDE8F08F40462146F9E7001B3C
:103A900061EB0201001C41F5801300185B41201806
:103AA000A2F5001747EB030140EAD570B6196D4146
:103AB00011E06D084FEA360645EAC0754FEA075235
:103AC000001B61EB0201001C41F5801149084FEA1F
:103AD00030000019514132462B4603B0BDE8F04F8B
:103AE00000F001BA0098012240000023D0EB02024E
:103AF00063EBE073009821464FEAE074B8EB0000F6
:103B000061EB0401E9E783F000435BE781F00041EA
:103B100058E72DE9FE4F81EA030404F0004421F048
:103B2000004100944FF0000B23F0004350EA0104E1
:103B30005ED052EA03045BD0C3F30A54C1F30A55C2
:103B40002C44A4F2F3340194A0FB0254C1F31301FA
:103B500041F48011C3F3130343F4801301FB0244C7
:103B600000FB034E840A970A44EA815447EA8357CC
:103B7000A4FB076802958D0A05FB07854FEA932C85
:103B800004FB0C542705029D4FEA065847EA1637F6
:103B9000B5EB08056EEB070C870E920E47EA81170E
:103BA00042EA8312A7FB0201B6EB0B0164EB0004AF
:103BB0002B0D43EA0C335E1844EB1C50DA46514699
:103BC000E7FB0201C5F313044FEA0B3343EA145336
:103BD0004FEA0432019C43EA0603A4F10C04029468
:103BE000009CCDE900B400F08DF903B0BDE8F08F82
:103BF00000200146F9E72DE9F04D81EA030404F0C5
:103C0000004B21F0004514464FF0000A23F000411C
:103C100050EA050220D054EA01021DD0C5F30A572C
:103C20000246C5F31303C1F31300C1F30A5640F46F
:103C3000801543F48013A7EB0608101BD64608F244
:103C4000FD3873EB050002D308F1010801E092187A
:103C50005B41B8F1000F03DA00200146BDE8F08DAA
:103C600000204FF48011064684460EE0171B73EBCC
:103C7000050705D3121B63EB050306434CEA010C51
:103C800049084FEA300092185B4150EA0107EDD134
:103C900052EA030012D082EA040083EA05010843D5
:103CA00005D0101BAB4106D20122002306E0002202
:103CB0004FF0004302E06FF0010253101AEB0600D0
:103CC0004CEB085110EB0A0041EB0B01BDE8F04D45
:103CD00000F009B996230022114600F0D6B80EB5BF
:103CE00040F2334102910021CDE900110A460B4612
:103CF00000F008F903B000BD20F00040C10DC0F392
:103D0000160040F400007F2901DA00207047962950
:103D100003DCC1F19601C84070479639884070476E
:103D200000F0004230F000400AD0C10D01F5607192
:103D3000C0F3160042EA0151C20840071143704720
:103D400000200146704701F0004330B421F00041EB
:103D500050EA010206D00A0DA2F56072C1F3130108
:103D6000002A02DC30BC00207047440F44EAC10442
:103D7000C100E01830BC00EBC25000F07DB800007C
:103D8000002801DBC0F10040002901DBC1F1004146
:103D900081427047002801DBC0F10040002901DBAF
:103DA000C1F100418842704730B50B460146002002
:103DB0002022012409E021FA02F59D4205D303FAED
:103DC00002F5491B04FA02F52844151EA2F101026E
:103DD000F1DC30BD2DE9F05F0546002092469B46A0
:103DE00088460646814640241BE028464146474611
:103DF000224600F017F953465A46C01A914110D393
:103E000011461846224600F016F82D1A67EB0108F5
:103E10004F4622460120002100F00DF817EB000963
:103E20004E41201EA4F10104DFDC484631462A46FB
:103E30004346BDE8F09F202A04DB203A00FA02F155
:103E4000002070479140C2F1200320FA03F3194388
:103E500090407047202A06DBCB17203A41FA02F047
:103E600043EAE07306E041FA02F3D040C2F12002D7
:103E700091400843194670470029A8BF7047401C6D
:103E8000490008BF20F00100704710B4B0FA80FC70
:103E900000FA0CF050EA010404BF10BC704749B1AD
:103EA000CCF1200421FA04F411FA0CF118BF01211D
:103EB00021430843A3EB0C01CB1D4FEA00614FEAFD
:103EC000102042BF002010BC704700EBC3501044CC
:103ED0000029A4BF10BC7047401C490008BF20F057
:103EE000010010BC704710B5141E73F1000408DA0D
:103EF000401C41F1000192185B411A4301D120F0AE
:103F0000010010BD2DE9F04D92469B4611B1B1FA6A
:103F100081F202E0B0FA80F220329046FFF78BFF88
:103F200004460F4640EA0A0041EA0B0153465A464E
:103F3000084313D0114653EA010019D0C8F14002DA
:103F4000504600F06FF805460E4650465946424628
:103F5000FFF771FF084305D0012004E020463946F1
:103F6000BDE8F08D0020054346EAE0762C43374358
:103F70000A986305E40AA0EB08000022FD0A44EA5F
:103F800047540A3002D500200146E9E7010510191F
:103F90006941DDE9084500196941BDE8F04DA2E736
:103FA000C1F30A52C1F3130140F2FF3341F480110F
:103FB0009A4202DA00200146704740F233439A42A7
:103FC000A2F2334202DC524200F02CB8FFF733BFBA
:103FD00030B5041E71F1000404DB4FF00044404290
:103FE00064EB0101141E73F1000405DB1C464FF065
:103FF0000043524263EB0403994208BF904230BD34
:10400000064C074D06E0E06840F0010394E8070025
:1040100098471034AC42F6D3FCF78EF8A884000819
:10402000C8840008202A04DB203A21FA02F000218B
:10403000704721FA02F3D040C2F1200291400843B8
:10404000194670470FB4054B10B503A9044A0298EE
:1040500000F0DEF810BC5DF814FB0000072C00082F
:104060005C0000200FB4084B10B504A902AA039805
:1040700000F0CEF8044602A9002000F060FC2046C3
:1040800010BC5DF814FB00003F49000802E008C8BE
:10409000121F08C1002AFAD170477047002001E0C2
:1040A00001C1121F002AFBD1704700002DE9FF5FFC
:1040B000DDE90220010DDDF838B0024318D044F6E6
:1040C0001050A1F2FF3141430D140F98012820D068
:1040D000A5EB0B00401C5FEA000A4FF00004474EBE
:1040E000DFF81C91A046504616D5CAF1000728E01B
:1040F0000F98012443A2012808D0002100980F9BAB
:10410000C0E90021C0E90243BDE8FF9F6FEA0B014F
:10411000F4E7CBF10000DEE7074612E0F80707D02E
:104120002246334640464946FFF7F3FC804689461F
:104130002246334610461946FFF7EBFC04460E466E
:104140007F10002FEAD1DDE90201BAF1000F4246EB
:104150004B4602DAFFF7DDFC01E0FFF74CFD0446B9
:104160000E460022284BFFF733FF03D84FF0FF30F5
:10417000014607E00022254B20463146FFF722FC8E
:10418000FFF70EFF102409E0002C0ADB0A220023AF
:10419000FFF720FE019B30321A55641E50EA0102DF
:1041A000F2D1641C019AC4F1110314440F9A012A3C
:1041B00003D0012208430DD10AE0084304D00020B7
:1041C0004FF0110B0F9080E7A3EB0B056D1E0DE078
:1041D0005B4504DD4FF0000205F1010504E003DA60
:1041E0004FF00002A5F10105002AECD000980F99CC
:1041F000C0E90231C0E9004586E700000000244024
:104200000000F03F300000000000F0430000E03FFD
:104210002DE9FF4F95B09B468946064600250FE2E3
:10422000252877D100242746F84A0121059400E08B
:10423000044316F8013F203B01FA03F01042F7D186
:1042400030782A2811D06FF02F033078A0F1300297
:10425000092A16D8059A44F0020402EB820203EB05
:1042600042021044761C0590EFE759F8042B0592A2
:10427000002A03DA504244F40054059044F002044A
:10428000761C30782E2816D116F8010F44F004045D
:104290002A280DD06FF02F023078A0F13003092BBF
:1042A00009D807EB870302EB4303C718761CF3E733
:1042B00059F8047B761C30786C280FD006DC4C282B
:1042C00017D068280DD06A2814D104E0742810D0C3
:1042D0007A280FD10DE044F400140AE044F480146D
:1042E00001E044F440147278824202D104F5801453
:1042F000761C761C307866280BD013DC582877D0D3
:1043000009DC002875D04528F6D04628F4D0472887
:104310001AD19DE118E0632835D0642879D065284A
:1043200012D195E1702873D008DC6728F1D0692894
:104330006FD06E280DD06F2806D1B5E073282CD031
:10434000752875D0782874D05A46179990476D1CF7
:1043500075E1C4F30250022809D003280DD0D9F822
:10436000001004280DD00D6009F1040967E1D9F8A7
:104370000010EA17C1E90052F6E7D9F800100D80E5
:10438000F2E70D70F0E719F8041B8DF8001000201B
:104390008DF80100EA46012003E059F804AB4FF024
:1043A000FF3061074FF0000102D40DE008F1010178
:1043B0008846B9420FDA8045F8DB1AF80810002960
:1043C000F4D108E008F1010188468142FADB1AF8CD
:1043D00008100029F6D105985B46A0EB0807214696
:1043E0003846179A00F094FA284400EB080507E0D5
:1043F0004DE029E10DE01AF8010B5A461799904754
:10440000B8F10108F7D25B4621463846179A13E106
:1044100042E00A220092C4F302524FF0000A022A3C
:1044200008D059F804CB032A4FEAEC710AD00DE00A
:1044300029E02AE009F1070121F00702F2E802C1B0
:10444000914609E00FFA8CFC4FEAEC71042A03D183
:104450004FFA8CFC4FEAEC71002907DA0A4600217A
:10446000DCF1000C61EB02012D2202E0220504D5F3
:104470002B228DF80420012203E0E20701D0202244
:10448000F7E7904659E00A2102E010220DE01021E2
:104490004FF0000A00910BE010224FF0000A44F0A8
:1044A00004040827009203E008224FF0000A00925B
:1044B000C4F30252022A05D059F804CB0021032A82
:1044C00008D009E009F1070121F00702F2E802C172
:1044D000914605E01FFA8CFC042A01D10CF0FF0C78
:1044E0004FF00008220728D5702806D0009B83F0E3
:1044F000100353EA0A0305D00EE040228DF8042091
:10450000012208E05CEA010206D030228DF8042086
:104510008DF8050002229046009B83F0080353EAC1
:104520000A030AD15CEA010201D1620705D53022F3
:104530008DF804204FF001087F1E582804D034A0C5
:1045400003900EA802900DE036A0F9E753466046AE
:10455000009AFFF73FFC84460398825C0298401E55
:10456000029002705CEA0100F0D1029806A9081AD4
:1045700000F1200A600702D524F4803400E001270E
:10458000574502DDA7EB0A0000E0002000EB0A011E
:10459000009005984144401A0590E00306D45B461C
:1045A0002146179A059800F0B3F90544002706E064
:1045B00001A85A46C05D179990476D1C7F1C47455E
:1045C000F6DBE0030CD55B462146179A059800F010
:1045D0009FF9054404E030205A46179990476D1C16
:1045E0000099481E00900029F5DC08E00298029925
:1045F0005A460078491C0291179990476D1CBAF1F0
:104600000001AAF1010AF1DC65E1000009280100BE
:104610003031323334353637383961626364656638
:1046200000000000303132333435363738394142FA
:10463000434445460000000000F058F90544761C4C
:10464000307800287FF4ECAD19B02846BDE8F08F33
:10465000620700D4062709F1070222F0070CFCE8E4
:104660000223E14603F000485FEA080C02D00FF293
:10467000702C0DE05FEA045C02D50FF2682C07E0B5
:104680005FEAC47C02D00FF2602C01E0AFF2700C44
:104690004FF0FF3823F00043CDF850C065280CD010
:1046A00006DC452809D046281DD047283DD13DE0ED
:1046B000662818D067287ED138E00021112F01DB51
:1046C000112000E0781CCDE9000106A90EA8FFF733
:1046D000EDFCDDE90F010E9A03910021009207F134
:1046E000010A04914DE04FF000400097CDE9011020
:1046F00006A90EA8FFF7DAFCDDE90F0203920E9B74
:1047000011990022DDF80CA00093049211B9791CD4
:1047100000EB010AB7EB0A0004D4C0F1FF3007F147
:10472000010A0490AAEB0700019044E0012F00DA8F
:1047300001270021112F01DD112000E03846CDE9CD
:10474000000106A90EA8FFF7B1FCDDE90F010E9AE2
:104750000391002104910092BA4621070CD40399D9
:10476000514500DA8A46BAF1010F05DD009AAAF137
:104770000101515C302908D0B84202DA10F1040F6F
:1047800006DA0121CDE9011015E0AAF10101E9E7FE
:10479000002805DC049901440491AAEB000102E021
:1047A000411C514500DD8A460499401A401C019085
:1047B0004FF000400290200704D40198504501DBDF
:1047C000CDF8048000208DF84F0002980DF14F07BE
:1047D000B0F1004F25D02B200E9002984FF0020828
:1047E00000280CDA404202902D200E9007E00A21AA
:1047F0000298FFF7D9FA3031029007F8011DB8F19D
:104800000001A8F10108F2DC02980028EFD1791E1E
:104810000E980870307800F0200040F0450007F84E
:10482000020D12A8C01B00F107081498007800B10F
:10483000012000EB0A01019801EBE0710598414469
:10484000401A401E0590E00306D45B462146179AA5
:10485000059800F05DF805441498007818B15A46A0
:10486000179990476D1CE00324D55B462146179AA3
:10487000059800F04DF805441CE00498002807DB7B
:10488000DDE90301884203DD0098405C179901E0EF
:10489000179930205A469047049805F10105401CAD
:1048A00004900198401E019004D12E205A46179979
:1048B00090476D1CBAF10001AAF1010ADDDC05E0A8
:1048C00017F8010B5A46179990476D1CB8F1000173
:1048D000A8F10108F4DC5B462146179A0598ABE67F
:1048E0002D0000002B000000200000002DE9F04109
:1048F000044600251E461746880404D405E03946C0
:104900002020B0476D1C641EF9D52846BDE8F08113
:104910002DE9F041044600251E469046C80301D506
:10492000302700E02027880404D505E041463846BA
:10493000B0476D1C641EF9D52846BDE8F0810A68B1
:10494000531C0B6010707047000000000000000056
:1049500000000000000000000000001818181818DF
:104960001808000818000000000000342424240067
:1049700000000000000000000000000016247F245A
:1049800024247E2424000000000000083E684868BB
:104990001C1612127C10100000000061D2967408E0
:1049A00010162949C6000000000000003C6464386D
:1049B000724ACE467F000000000000181818180048
:1049C0000000000000000000000000040818103083
:1049D0003030301010180C04000000201008080CB3
:1049E0000404040C08181020000000080A341C6A93
:1049F000080000000000000000000000000018187F
:104A0000187F1818180000000000000000000000C7
:104A1000000000181808300000000000000000002E
:104A2000003C00000000000000000000000000004A
:104A300000000018180000000000000206040C0826
:104A40000810102020400000000000003C66424793
:104A50005B7342663C0000000000000018784808C4
:104A6000080808087E000000000000003C4606061A
:104A7000040810207E000000000000007C060604F0
:104A80003C0202067C000000000000000C1C142404
:104A90006444FF0404000000000000007E606060C9
:104AA0007E0202067C000000000000001E3060480C
:104AB000764242623C000000000000007E020604D4
:104AC0000C08181030000000000000003C62423664
:104AD0001C6642423C000000000000003C6642426E
:104AE000661A020478000000000000000000181898
:104AF0000000001818000000000000000000181856
:104B00000000001818083000000000000000041821
:104B10003060100C060000000000000000000000E3
:104B20007E007E0000000000000000000000301841
:104B300004060C1020000000000000301C060606D1
:104B400018100010100000000000001C224141DD80
:104B5000B5A5A5AF94C0403C00000000181C34244B
:104B600026627E43C1000000000000007C464246F1
:104B70007C4242427C000000000000001E204040B9
:104B8000404040603E000000000000007C46424380
:104B90004343424678000000000000007E606060F1
:104BA0007E6060607E000000000000007E6060604B
:104BB0007E60606060000000000000001E604040F9
:104BC000CE4242623E0000000000000042424242EB
:104BD0007E42424242000000000000007E18181889
:104BE000181818187E000000000000007C0404045F
:104BF00004040444780000000000000042444850CF
:104C000070584C444200000000000000202020208A
:104C1000202020203E000000000000006266675F48
:104C20005B5BC1C1C1000000000000006262725203
:104C30005A4A4E4646000000000000003C6243C352
:104C4000C3C343623C000000000000007C464242B7
:104C50004678404040000000000000003C6243C332
:104C6000C3C343623C180F00000000007C6662660C
:104C70007C6C646662000000000000003E604060E2
:104C80001C0602027C000000000000007F181818BB
:104C90001818181818000000000000004242424294
:104CA000424242623C00000000000000C1434262F8
:104CB0002624341C1800000000000000C1C1414936
:104CC0005B5B7666660000000000000043663418F7
:104CD000181C2466C300000000000000C1426634B6
:104CE0001C18181818000000000000007E02040CB8
:104CF000181020607E0000000000001C1010101032
:104D0000101010101010101C000000402020101077
:104D100008080C04060200000000003C0C0C0C0CFF
:104D20000C0C0C0C0C0C0C3C00000000181C246239
:104D30000000000000000000000000000000000073
:104D400000000000000000FF000000201000000034
:104D500000000000000000000000000000003C0611
:104D6000023E42467A0000000000004040405C6283
:104D7000424242427C0000000000000000001E2071
:104D8000604060203E0000000000000202023E621F
:104D9000424242663A0000000000000000003C620F
:104DA000427E40603E0000000000000F1810107EA0
:104DB00010101010100000000000000000003F66FE
:104DC000426658403E43423C0000004040405C6226
:104DD00042424242420000000000001818007808D9
:104DE000080808087E000000000000040C007C0495
:104DF0000404040404040C78000000606060626C29
:104E000078706864620000000000007808080808F4
:104E1000080808087E000000000000000000764B33
:104E20004B4B4B4B4B0000000000000000005C624D
:104E300042424242420000000000000000003C628A
:104E4000424342623C0000000000000000005C623F
:104E5000424242427C4040400000000000003E626E
:104E6000424242663A0202020000000000006E72F6
:104E700063606060600000000000000000003E20F1
:104E8000203C06027C000000000000001010FE1014
:104E9000101010101E000000000000000000424230
:104EA000424242663A000000000000000000434217
:104EB0006624341818000000000000000000C1C182
:104EC0005B5A5E666600000000000000000062267B
:104ED0001C181C2662000000000000000000434275
:104EE0006624341C181830E00000000000007E0624
:104EF0000C1810207E0000000000000E181010108A
:104F0000307010101010180E00000808080808086B
:104F100008080808080808080000003018080808F1
:104F20000C0E0808080818300000000000000000FF
:104F3000714B0600000000000000000000000000AF
:104F40000000000000000000000000000000000061
:104F50000000000000000000000000000000000051
:104F60000000000000000000000000000000000041
:104F700000000380018001800180018001800180A8
:104F80000180018001800000000003C003C0000018
:104F90000000000000000000000000000000000011
:104FA00000000E700E700E700C300000000000004B
:104FB00000000000000000000000000000000000F1
:104FC00000000000000000000000000000000000E1
:104FD000000000000618063806307FFE0C300C304A
:104FE0000C300C307FFE0C601C60186018600000F4
:104FF00000000000000000000000000000000000B1
:1050000000C000C00FF83CC831C031803D801F8017
:1050100003F001F8031C030C031C3FF83FE00700FA
:10502000060000000000000000000000000000007A
:105030001C007E0E630C631863307E6000C001802C
:105040000300077C0EE61CC618C630C6607C000054
:105050000000000000000000000000000000000050
:1050600000000FE01CF0387038701C601FC00F008B
:105070003F8C71CC60EC607C70383CFC1FCE000033
:105080000000000000000000000000000000000020
:10509000000003C0018001800180000000000000CA
:1050A0000000000000000000000000000000000000
:1050B00000000000000000000000000000000000F0
:1050C000003000E001C00180030007000600060078
:1050D0000E000E000E000E00060007000300038005
:1050E00001C000E0003000000000000000000000EF
:1050F0000C0006000380018001C000E00060006039
:105100000070007000700060006000E000C001806E
:10511000038006000C0000000000000000000000FA
:105120000000018011881DB803C007E03DBC018864
:1051300001800000000000000000000000000000EE
:10514000000000000000000000000000000000005F
:10515000000000000000000001800180018001804B
:1051600001807FFE0180018001800180000000003D
:10517000000000000000000000000000000000002F
:10518000000000000000000000000000000000001F
:10519000000000000000000003C003C001C001C007
:1051A00003801F000000000000000000000000005D
:1051B00000000000000000000000000000000000EF
:1051C00000000FF0000000000000000000000000E0
:1051D00000000000000000000000000000000000CF
:1051E00000000000000000000000000000000000BF
:1051F000000000000000000003C003C003C0000066
:10520000000000000000000000000000000000009E
:105210000000001800380030006000E000C001C04D
:1052200001800300030006000E000C001C001800A3
:10523000300000000000000000000000000000003E
:10524000000001800FF01C38381C301C707E70EE9E
:10525000738E7E0E7C0C300C381C1E780FE0000024
:10526000000000000000000000000000000000003E
:105270000000000007C01FC039C001C001C001C04C
:1052800001C001C001C001C001C03FFC3FFC0000E3
:10529000000000000000000000000000000000000E
:1052A000000003801FF0183800380018003800385C
:1052B000007001E0038007001C003FFC3FFC000081
:1052C00000000000000000000000000000000000DE
:1052D000000007801FF0003800380038003007E079
:1052E00007F00038001C001C001820F83FE0000008
:1052F00000000000000000000000000000000000AE
:105300000000000000F001B0033007300E301C3008
:10531000383070307FFE7FFE0030003000300000FB
:10532000000000000000000000000000000000007D
:10533000000000001FF818001800180018001FE0F7
:1053400000F8001C001C001C003800F01FC000000A
:10535000000000000000000000000000000000004D
:105360000000000003F80F001C001800300037F8A0
:105370003C3C300C300C380C381C1E380FF0000050
:10538000000000000000000000000000000000001D
:10539000000000003FFC001C001800380070006096
:1053A00000E001C001800380070006000E0000003D
:1053B00000000000000000000000000000000000ED
:1053C000000003C01FF8381C381C381C1C380FF0B4
:1053D00007F01C78381C300C381C3C380FF00000EB
:1053E00000000000000000000000000000000000BD
:1053F000000003801FF03838301C701C700C380C13
:105400001FFC0FCC001C001800701FE01F80000064
:10541000000000000000000000000000000000008C
:105420000000000000000000000003C003C0018075
:10543000000000000000000003C003C003C0000023
:10544000000000000000000000000000000000005C
:105450000000000000000000000003C003C0018045
:10546000000000000000000003C003C001C001C034
:1054700003800F000000000000000000000000009A
:105480000000000000000000003800F001C007002C
:105490001E0038000E00078001C0007000300000C0
:1054A00000000000000000000000000000000000FC
:1054B00000000000000000000000000000003FFCB1
:1054C000000000003FFC3FFC000000000000000066
:1054D00000000000000000000000000000000000CC
:1054E00000000000000000001C000F00038001E02D
:1054F0000078001C007001E003800E000C0000002A
:10550000000000000000000000000000000000009B
:1055100000000FC000F0003800380038003803F0F9
:1055200003800300030000000000078007800000E4
:10553000000000000000000000000000000000006B
:1055400000E007F80C0C18063006700363F36633AE
:10555000C673CC63CC62CC66CCE6C7FCE0006000CE
:10556000700038101FF00000000000000000000074
:105570000000000003C007E006E00E700E700C3063
:105580001C3818183FFC3FFC700E600EE00700004E
:10559000000000000000000000000000000000000B
:1055A000000000003FF03838381C381C38383FF015
:1055B0003FF8381C380C380C381C3FF83FE000002E
:1055C00000000000000000000000000000000000DB
:1055D000000000E007FC1E043800380030007000B6
:1055E00070007000300038003C001F9C07FC000079
:1055F00000000000000000000000000000000000AB
:10560000000000003FF03078301C300C300E300EBF
:10561000300E300E300E301C30383FF03FC00000EE
:10562000000000000000000000000000000000007A
:10563000000000001FF818001800180018001FF8DC
:105640001FF818001800180018001FF81FF80000B5
:10565000000000000000000000000000000000004A
:10566000000000001FF818001800180018001FF8AC
:105670001FF8180018001800180018001800000083
:10568000000000000000000000000000000000001A
:10569000000000F007FC1E043800300070007000AD
:1056A00070FC700C700C300C380C1F1C07FC0000D8
:1056B00000000000000000000000000000000000EA
:1056C00000000000300C300C300C300C300C3FFC73
:1056D0003FFC300C300C300C300C300C300C000027
:1056E00000000000000000000000000000000000BA
:1056F000000000003FFC01800180018001800180EA
:10570000018001800180018001803FFC3FFC00009E
:105710000000000000000000000000000000000089
:10572000000000001FF0003000300030003000307A
:10573000003000300030003000701DE01FC000005D
:105740000000000000000000000000000000000059
:1057500000000000381C387038E039C03B803F0042
:105760003F003B8039C038E038703838381C0000C2
:105770000000000000000000000000000000000029
:10578000000000001C001C001C001C001C001C0071
:105790001C001C001C001C001C001FFC1FFC000047
:1057A00000000000000000000000000000000000F9
:1057B00000000000381C7C3C6C3E6E6E666E66CE4F
:1057C00063C6638661866006600660066006000048
:1057D00000000000000000000000000000000000C9
:1057E000000000003C0C3C0C3E0C360C330C338C9F
:1057F000318C31CC30EC306C307C303C301C0000D3
:105800000000000000000000000000000000000098
:10581000000001C00FF81C3C381C700E700E6006B2
:105820006006700E700E700C381C1E780FE00000C1
:105830000000000000000000000000000000000068
:10584000000000003FF0383C381C380C380C381C85
:1058500038783FE038003800380038003800000061
:105860000000000000000000000000000000000038
:10587000000001C00FF81C3C381C700E700E600652
:105880006006700E700E700C381C1E780FE00180E0
:1058900001C000FF003C000000000000000000000C
:1058A000000000003FF0383838183818383838F021
:1058B0003FC038E0387038383838381C380E0000AF
:1058C00000000000000000000000000000000000D8
:1058D000000001E00FF83800380038003C001F805D
:1058E00003F00078001C001C001C38783FE000002A
:1058F00000000000000000000000000000000000A8
:10590000000000007FFE0180018001800180018095
:105910000180018001800180018001800180000000
:105920000000000000000000000000000000000077
:1059300000000000300C300C300C300C300C300CFF
:10594000300C300C300C300C381C1C380FF00000C0
:105950000000000000000000000000000000000047
:1059600000000000E006700E700E381C381C1C1879
:105970001C380C300E70066007E003C003C0000046
:105980000000000000000000000000000000000017
:10599000000000006006600660066006618663869F
:1059A00073C673CE766C366C3C3C3C3C381C0000B5
:1059B00000000000000000000000000000000000E7
:1059C00000000000301C38181C380E7007E003C0BF
:1059D00003C007E00E701C381838381C700E000029
:1059E00000000000000000000000000000000000B7
:1059F00000000000700E700C381C1C380E70066021
:105A000007E003C001800180018001800180000067
:105A10000000000000000000000000000000000086
:105A2000000000003FFC001C0038007000E001C0D6
:105A3000038007000E000C0018003FFC3FFC000034
:105A40000000000000000000000000000000000056
:105A500007F007F006000600060006000600060034
:105A60000600060006000600060006000600060006
:105A70000600060007F00000000000000000000023
:105A8000000018001C000C00060007000300038043
:105A9000018001C000C000600070003000380018B4
:105AA000000C0000000000000000000000000000EA
:105AB0000FE00FE0006000600060006000600060C8
:105AC00000600060006000600060006000600060D6
:105AD000006000600FE00000000000000000000017
